{
  "contractName": "Insurance",
  "abi": [
    {
      "inputs": [],
      "payable": false,
      "stateMutability": "nonpayable",
      "type": "constructor"
    },
    {
      "constant": true,
      "inputs": [],
      "name": "contractOwner",
      "outputs": [
        {
          "internalType": "address payable",
          "name": "",
          "type": "address"
        }
      ],
      "payable": false,
      "stateMutability": "view",
      "type": "function"
    },
    {
      "constant": true,
      "inputs": [],
      "name": "damageAmount",
      "outputs": [
        {
          "internalType": "uint256",
          "name": "",
          "type": "uint256"
        }
      ],
      "payable": false,
      "stateMutability": "view",
      "type": "function"
    },
    {
      "constant": true,
      "inputs": [
        {
          "internalType": "address",
          "name": "",
          "type": "address"
        }
      ],
      "name": "insuranceTakers",
      "outputs": [
        {
          "internalType": "string",
          "name": "name",
          "type": "string"
        },
        {
          "internalType": "string",
          "name": "vehicleNo",
          "type": "string"
        },
        {
          "internalType": "address",
          "name": "insuranceTakerAddress",
          "type": "address"
        },
        {
          "internalType": "bool",
          "name": "policyValid",
          "type": "bool"
        },
        {
          "internalType": "uint256",
          "name": "lastPayment",
          "type": "uint256"
        },
        {
          "internalType": "uint256",
          "name": "premiumNo",
          "type": "uint256"
        }
      ],
      "payable": false,
      "stateMutability": "view",
      "type": "function"
    },
    {
      "constant": true,
      "inputs": [],
      "name": "policyPeriod",
      "outputs": [
        {
          "internalType": "uint256",
          "name": "",
          "type": "uint256"
        }
      ],
      "payable": false,
      "stateMutability": "view",
      "type": "function"
    },
    {
      "constant": false,
      "inputs": [],
      "name": "pay",
      "outputs": [],
      "payable": true,
      "stateMutability": "payable",
      "type": "function"
    },
    {
      "constant": true,
      "inputs": [],
      "name": "balanceOf",
      "outputs": [
        {
          "internalType": "uint256",
          "name": "",
          "type": "uint256"
        }
      ],
      "payable": false,
      "stateMutability": "view",
      "type": "function"
    },
    {
      "constant": false,
      "inputs": [],
      "name": "deposit",
      "outputs": [],
      "payable": true,
      "stateMutability": "payable",
      "type": "function"
    },
    {
      "constant": false,
      "inputs": [
        {
          "internalType": "string",
          "name": "_name",
          "type": "string"
        },
        {
          "internalType": "string",
          "name": "_vehicleNo",
          "type": "string"
        }
      ],
      "name": "signUp",
      "outputs": [
        {
          "internalType": "uint256",
          "name": "",
          "type": "uint256"
        }
      ],
      "payable": true,
      "stateMutability": "payable",
      "type": "function"
    },
    {
      "constant": true,
      "inputs": [
        {
          "internalType": "address",
          "name": "insuranceTaker",
          "type": "address"
        }
      ],
      "name": "isInsured",
      "outputs": [
        {
          "internalType": "bool",
          "name": "",
          "type": "bool"
        }
      ],
      "payable": false,
      "stateMutability": "view",
      "type": "function"
    },
    {
      "constant": false,
      "inputs": [
        {
          "internalType": "address",
          "name": "insuranceTaker",
          "type": "address"
        }
      ],
      "name": "payPremium",
      "outputs": [
        {
          "internalType": "bool",
          "name": "",
          "type": "bool"
        }
      ],
      "payable": true,
      "stateMutability": "payable",
      "type": "function"
    },
    {
      "constant": false,
      "inputs": [],
      "name": "claim",
      "outputs": [],
      "payable": false,
      "stateMutability": "nonpayable",
      "type": "function"
    }
  ],
  "bytecode": "0x608060405262278d00600255671bc16d674ec8000060035534801561002357600080fd5b50336000806101000a81548173ffffffffffffffffffffffffffffffffffffffff021916908373ffffffffffffffffffffffffffffffffffffffff160217905550610fb2806100736000396000f3fe60806040526004361061009c5760003560e01c80639ba29d6d116100645780639ba29d6d146102cb578063a1a5159a14610334578063a469a3321461035f578063ce606ee0146104c5578063d0e30db01461051c578063ff0e880d146105265761009c565b80630614bb3d146100a15780631b9265b8146102235780634e71d92d1461022d578063582f56e214610244578063722713f7146102a0575b600080fd5b3480156100ad57600080fd5b506100f0600480360360208110156100c457600080fd5b81019080803573ffffffffffffffffffffffffffffffffffffffff169060200190929190505050610551565b6040518080602001806020018773ffffffffffffffffffffffffffffffffffffffff1673ffffffffffffffffffffffffffffffffffffffff16815260200186151515158152602001858152602001848152602001838103835289818151815260200191508051906020019080838360005b8381101561017c578082015181840152602081019050610161565b50505050905090810190601f1680156101a95780820380516001836020036101000a031916815260200191505b50838103825288818151815260200191508051906020019080838360005b838110156101e25780820151818401526020810190506101c7565b50505050905090810190601f16801561020f5780820380516001836020036101000a031916815260200191505b509850505050505050505060405180910390f35b61022b6106ea565b005b34801561023957600080fd5b50610242610769565b005b6102866004803603602081101561025a57600080fd5b81019080803573ffffffffffffffffffffffffffffffffffffffff169060200190929190505050610873565b604051808215151515815260200191505060405180910390f35b3480156102ac57600080fd5b506102b5610aa7565b6040518082815260200191505060405180910390f35b3480156102d757600080fd5b5061031a600480360360208110156102ee57600080fd5b81019080803573ffffffffffffffffffffffffffffffffffffffff169060200190929190505050610aaf565b604051808215151515815260200191505060405180910390f35b34801561034057600080fd5b50610349610b21565b6040518082815260200191505060405180910390f35b6104af6004803603604081101561037557600080fd5b810190808035906020019064010000000081111561039257600080fd5b8201836020820111156103a457600080fd5b803590602001918460018302840111640100000000831117156103c657600080fd5b91908080601f016020809104026020016040519081016040528093929190818152602001838380828437600081840152601f19601f8201169050808301925050505050505091929192908035906020019064010000000081111561042957600080fd5b82018360208201111561043b57600080fd5b8035906020019184600183028401116401000000008311171561045d57600080fd5b91908080601f016020809104026020016040519081016040528093929190818152602001838380828437600081840152601f19601f820116905080830192505050505050509192919290505050610b27565b6040518082815260200191505060405180910390f35b3480156104d157600080fd5b506104da610ce8565b604051808273ffffffffffffffffffffffffffffffffffffffff1673ffffffffffffffffffffffffffffffffffffffff16815260200191505060405180910390f35b610524610d0d565b005b34801561053257600080fd5b5061053b610e15565b6040518082815260200191505060405180910390f35b6001602052806000526040600020600091509050806000018054600181600116156101000203166002900480601f0160208091040260200160405190810160405280929190818152602001828054600181600116156101000203166002900480156105fd5780601f106105d2576101008083540402835291602001916105fd565b820191906000526020600020905b8154815290600101906020018083116105e057829003601f168201915b505050505090806001018054600181600116156101000203166002900480601f01602080910402602001604051908101604052809291908181526020018280546001816001161561010002031660029004801561069b5780601f106106705761010080835404028352916020019161069b565b820191906000526020600020905b81548152906001019060200180831161067e57829003601f168201915b5050505050908060020160009054906101000a900473ffffffffffffffffffffffffffffffffffffffff16908060020160149054906101000a900460ff16908060030154908060040154905086565b6106f2610e1b565b341415610767576040517f08c379a000000000000000000000000000000000000000000000000000000000815260040180806020018281038252601d8152602001807f7061792074686520636f7272656374207072656d69756d20707269636500000081525060200191505060405180910390fd5b565b671bc16d674ec800004710156107ca576040517f08c379a0000000000000000000000000000000000000000000000000000000008152600401808060200182810382526022815260200180610f146022913960400191505060405180910390fd5b6107d333610aaf565b610828576040517f08c379a0000000000000000000000000000000000000000000000000000000008152600401808060200182810382526022815260200180610ef26022913960400191505060405180910390fd5b3373ffffffffffffffffffffffffffffffffffffffff166108fc6003549081150290604051600060405180830381858888f19350505050158015610870573d6000803e3d6000fd5b50565b600080600160008473ffffffffffffffffffffffffffffffffffffffff1673ffffffffffffffffffffffffffffffffffffffff168152602001908152602001600020905060018160040154141561097f576108cc610e1b565b3414610940576040517f08c379a00000000000000000000000000000000000000000000000000000000081526004018080602001828103825260048152602001807f657272310000000000000000000000000000000000000000000000000000000081525060200191505060405180910390fd5b60018160020160146101000a81548160ff0219169083151502179055504281600301819055508060040160008154809291906001019190505550610a9d565b61098883610aaf565b6109fa576040517f08c379a00000000000000000000000000000000000000000000000000000000081526004018080602001828103825260048152602001807f657272320000000000000000000000000000000000000000000000000000000081525060200191505060405180910390fd5b610a02610e1b565b3414610a76576040517f08c379a00000000000000000000000000000000000000000000000000000000081526004018080602001828103825260048152602001807f657272330000000000000000000000000000000000000000000000000000000081525060200191505060405180910390fd5b60018160020160146101000a81548160ff0219169083151502179055504281600301819055505b6001915050919050565b600047905090565b600080600160008473ffffffffffffffffffffffffffffffffffffffff1673ffffffffffffffffffffffffffffffffffffffff16815260200190815260200160002090508060020160149054906101000a900460ff168015610b1957504260025482600301540110155b915050919050565b60035481565b6000678ac7230489e800003373ffffffffffffffffffffffffffffffffffffffff163111610bbd576040517f08c379a00000000000000000000000000000000000000000000000000000000081526004018080602001828103825260118152602001807f4e6f7420656e6f7567682065746865722100000000000000000000000000000081525060200191505060405180910390fd5b6000600160003373ffffffffffffffffffffffffffffffffffffffff1673ffffffffffffffffffffffffffffffffffffffff168152602001908152602001600020905083816000019080519060200190610c18929190610e2b565b5082816001019080519060200190610c31929190610e2b565b50338160020160006101000a81548173ffffffffffffffffffffffffffffffffffffffff021916908373ffffffffffffffffffffffffffffffffffffffff16021790555060018160040181905550610c8833610873565b610cdd576040517f08c379a0000000000000000000000000000000000000000000000000000000008152600401808060200182810382526021815260200180610ed16021913960400191505060405180910390fd5b60c891505092915050565b6000809054906101000a900473ffffffffffffffffffffffffffffffffffffffff1681565b6000809054906101000a900473ffffffffffffffffffffffffffffffffffffffff1673ffffffffffffffffffffffffffffffffffffffff163373ffffffffffffffffffffffffffffffffffffffff1614610db2576040517f08c379a0000000000000000000000000000000000000000000000000000000008152600401808060200182810382526021815260200180610f5d6021913960400191505060405180910390fd5b671bc16d674ec80000341015610e13576040517f08c379a0000000000000000000000000000000000000000000000000000000008152600401808060200182810382526027815260200180610f366027913960400191505060405180910390fd5b565b60025481565b6000670de0b6b3a7640000905090565b828054600181600116156101000203166002900490600052602060002090601f016020900481019282601f10610e6c57805160ff1916838001178555610e9a565b82800160010185558215610e9a579182015b82811115610e99578251825591602001919060010190610e7e565b5b509050610ea79190610eab565b5090565b610ecd91905b80821115610ec9576000816000905550600101610eb1565b5090565b9056fe6e65656420746f20706179206669727374207072656d69756d20757066726f6e74736f727279207369676e757020666f722074686520706f6c696379206669727374216d696e696d756d203220657468657220726571756972656420746f20726566756e64636f6e7472616374206e656564732066756e647320666f722064616d616765207061796d656e746f6e6c7920636f6e7472616374206f776e65722063616e2063616c6c2074686973a265627a7a723158204de9f83ccd0d605aebbecb0cf2d983ee68c88e51b0c3e26a16913f4cc5b407cb64736f6c63430005100032",
  "source": "pragma solidity >=0.5.0 <0.7.0;\r\n\r\n\r\ncontract Insurance {\r\n    address payable public contractOwner;\r\n\r\n    struct InsuranceTaker {\r\n        string name;\r\n        string vehicleNo;\r\n        address insuranceTakerAddress;\r\n        bool policyValid;\r\n        uint256 lastPayment;\r\n        uint256 premiumNo;\r\n    }\r\n\r\n    constructor() public {\r\n        //contractOwner will have the address of the account that first deployed the smartContract\r\n        //in our case the appropriate insurance company\r\n        contractOwner = msg.sender;\r\n    }\r\n\r\n    mapping(address => InsuranceTaker) public insuranceTakers;\r\n\r\n    //can be annual, half-yearly, quaterly or monthly\r\n    uint256 public policyPeriod = 30 days;\r\n\r\n    function pay() external payable {\r\n        if (msg.value == getPremium()) {\r\n            revert(\"pay the correct premium price\");\r\n        }\r\n    }\r\n\r\n    function balanceOf() public view returns (uint256) {\r\n        return address(this).balance;\r\n    }\r\n\r\n    modifier onlyBy() {\r\n        require(\r\n            msg.sender == contractOwner,\r\n            \"only contract owner can call this\"\r\n        );\r\n        _;\r\n    }\r\n\r\n    function deposit() public payable onlyBy() {\r\n        require(\r\n            msg.value >= 2 ether,\r\n            \"contract needs funds for damage payment\"\r\n        );\r\n    }\r\n\r\n    function signUp(string memory _name, string memory _vehicleNo)\r\n        public\r\n        payable\r\n        returns (uint256)\r\n    {\r\n        //to check if new insurance taker has enough ether in their account\r\n        require(msg.sender.balance > 10 ether, \"Not enough ether!\");\r\n        //setting the structure variables\r\n        InsuranceTaker storage customer = insuranceTakers[msg.sender];\r\n        customer.name = _name;\r\n        customer.vehicleNo = _vehicleNo;\r\n        customer.insuranceTakerAddress = msg.sender;\r\n        customer.premiumNo = 1;\r\n        //first premium to be paid upfront\r\n        //require(msg.value == 0.01 ether,\"err1\");\r\n        //contractOwner.transfer(getPremium());\r\n        require(payPremium(msg.sender), \"need to pay first premium upfront\");\r\n        return (200);\r\n    }\r\n\r\n    //calculates and returns the premium to be paid by the insurance taker\r\n    function getPremium() internal pure returns (uint256) {\r\n        //insuranceTaker customer = insuranceTakers[insuranceTaker];\r\n        //premiumAmount = 1 ether;\r\n        return 1 ether;\r\n    }\r\n\r\n    //to check if a insurance taker is currently insured\r\n    function isInsured(address insuranceTaker) public view returns (bool) {\r\n        InsuranceTaker storage customer = insuranceTakers[insuranceTaker];\r\n        return (customer.policyValid &&\r\n            (customer.lastPayment + policyPeriod >= now));\r\n    }\r\n\r\n    uint256 public damageAmount = 2 ether;\r\n\r\n    function payPremium(address insuranceTaker) public payable returns (bool) {\r\n        InsuranceTaker storage customer = insuranceTakers[insuranceTaker];\r\n        //require(premiumAmount == getPremium(),\"err0\");\r\n        if (customer.premiumNo == 1) {\r\n            require(msg.value == getPremium(), \"err1\");\r\n            customer.policyValid = true;\r\n            customer.lastPayment = now;\r\n            customer.premiumNo++;\r\n        } else {\r\n            require(isInsured(insuranceTaker), \"err2\");\r\n            require(msg.value == getPremium(), \"err3\");\r\n            customer.policyValid = true;\r\n            customer.lastPayment = now;\r\n        }\r\n        return true;\r\n    }\r\n\r\n    //claim function\r\n    function claim() public {\r\n        require(\r\n            address(this).balance >= 2 ether,\r\n            \"minimum 2 ether required to refund\"\r\n        );\r\n        require(isInsured(msg.sender), \"sorry signup for the policy first!\");\r\n        msg.sender.transfer(damageAmount);\r\n    }\r\n}\r\n",
  "sourcePath": "C:\\Users\\sohin\\Desktop\\FYP\\beta\\contracts\\Insurance.sol",
  "compiler": {
    "name": "solc",
    "version": "0.5.16+commit.9c3226ce.Emscripten.clang"
  },
  "schemaVersion": "3.0.23",
  "updatedAt": "2020-05-12T15:41:39.340Z",
  "networkType": "ethereum",
  "devdoc": {
    "methods": {}
  },
  "userdoc": {
    "methods": {}
  }
}